{
  "_format": "hh-sol-artifact-1",
  "contractName": "FarmContract",
  "sourceName": "contracts/FarmContract.sol",
  "abi": [
    {
      "inputs": [],
      "stateMutability": "nonpayable",
      "type": "constructor"
    },
    {
      "anonymous": false,
      "inputs": [
        {
          "indexed": false,
          "internalType": "string",
          "name": "batchId",
          "type": "string"
        },
        {
          "indexed": false,
          "internalType": "uint256",
          "name": "timestamp",
          "type": "uint256"
        }
      ],
      "name": "BatchSentToFactory",
      "type": "event"
    },
    {
      "anonymous": false,
      "inputs": [
        {
          "indexed": false,
          "internalType": "string",
          "name": "cowId",
          "type": "string"
        },
        {
          "indexed": false,
          "internalType": "string",
          "name": "breed",
          "type": "string"
        },
        {
          "indexed": false,
          "internalType": "uint256",
          "name": "timestamp",
          "type": "uint256"
        }
      ],
      "name": "CowRegistered",
      "type": "event"
    },
    {
      "anonymous": false,
      "inputs": [
        {
          "indexed": false,
          "internalType": "string",
          "name": "batchId",
          "type": "string"
        },
        {
          "indexed": false,
          "internalType": "string",
          "name": "cowId",
          "type": "string"
        },
        {
          "indexed": false,
          "internalType": "uint256",
          "name": "quantity",
          "type": "uint256"
        },
        {
          "indexed": false,
          "internalType": "uint256",
          "name": "timestamp",
          "type": "uint256"
        }
      ],
      "name": "MilkHarvested",
      "type": "event"
    },
    {
      "inputs": [
        {
          "internalType": "uint256",
          "name": "",
          "type": "uint256"
        }
      ],
      "name": "allBatchIds",
      "outputs": [
        {
          "internalType": "string",
          "name": "",
          "type": "string"
        }
      ],
      "stateMutability": "view",
      "type": "function"
    },
    {
      "inputs": [
        {
          "internalType": "string",
          "name": "",
          "type": "string"
        }
      ],
      "name": "cows",
      "outputs": [
        {
          "internalType": "string",
          "name": "cowId",
          "type": "string"
        },
        {
          "internalType": "string",
          "name": "breed",
          "type": "string"
        },
        {
          "internalType": "uint256",
          "name": "birthDate",
          "type": "uint256"
        },
        {
          "internalType": "string",
          "name": "healthStatus",
          "type": "string"
        },
        {
          "internalType": "bool",
          "name": "isActive",
          "type": "bool"
        }
      ],
      "stateMutability": "view",
      "type": "function"
    },
    {
      "inputs": [],
      "name": "getAllBatchIds",
      "outputs": [
        {
          "internalType": "string[]",
          "name": "",
          "type": "string[]"
        }
      ],
      "stateMutability": "view",
      "type": "function"
    },
    {
      "inputs": [
        {
          "internalType": "string",
          "name": "_cowId",
          "type": "string"
        }
      ],
      "name": "getCow",
      "outputs": [
        {
          "components": [
            {
              "internalType": "string",
              "name": "cowId",
              "type": "string"
            },
            {
              "internalType": "string",
              "name": "breed",
              "type": "string"
            },
            {
              "internalType": "uint256",
              "name": "birthDate",
              "type": "uint256"
            },
            {
              "internalType": "string",
              "name": "healthStatus",
              "type": "string"
            },
            {
              "internalType": "bool",
              "name": "isActive",
              "type": "bool"
            }
          ],
          "internalType": "struct FarmContract.Cow",
          "name": "",
          "type": "tuple"
        }
      ],
      "stateMutability": "view",
      "type": "function"
    },
    {
      "inputs": [
        {
          "internalType": "string",
          "name": "_batchId",
          "type": "string"
        }
      ],
      "name": "getMilkBatch",
      "outputs": [
        {
          "components": [
            {
              "internalType": "string",
              "name": "batchId",
              "type": "string"
            },
            {
              "internalType": "string",
              "name": "cowId",
              "type": "string"
            },
            {
              "internalType": "uint256",
              "name": "harvestDate",
              "type": "uint256"
            },
            {
              "internalType": "uint256",
              "name": "quantity",
              "type": "uint256"
            },
            {
              "internalType": "uint256",
              "name": "fatContent",
              "type": "uint256"
            },
            {
              "internalType": "string",
              "name": "quality",
              "type": "string"
            },
            {
              "internalType": "bool",
              "name": "sentToFactory",
              "type": "bool"
            },
            {
              "internalType": "address",
              "name": "recordedBy",
              "type": "address"
            }
          ],
          "internalType": "struct FarmContract.MilkBatch",
          "name": "",
          "type": "tuple"
        }
      ],
      "stateMutability": "view",
      "type": "function"
    },
    {
      "inputs": [
        {
          "internalType": "string",
          "name": "",
          "type": "string"
        }
      ],
      "name": "milkBatches",
      "outputs": [
        {
          "internalType": "string",
          "name": "batchId",
          "type": "string"
        },
        {
          "internalType": "string",
          "name": "cowId",
          "type": "string"
        },
        {
          "internalType": "uint256",
          "name": "harvestDate",
          "type": "uint256"
        },
        {
          "internalType": "uint256",
          "name": "quantity",
          "type": "uint256"
        },
        {
          "internalType": "uint256",
          "name": "fatContent",
          "type": "uint256"
        },
        {
          "internalType": "string",
          "name": "quality",
          "type": "string"
        },
        {
          "internalType": "bool",
          "name": "sentToFactory",
          "type": "bool"
        },
        {
          "internalType": "address",
          "name": "recordedBy",
          "type": "address"
        }
      ],
      "stateMutability": "view",
      "type": "function"
    },
    {
      "inputs": [],
      "name": "owner",
      "outputs": [
        {
          "internalType": "address",
          "name": "",
          "type": "address"
        }
      ],
      "stateMutability": "view",
      "type": "function"
    },
    {
      "inputs": [
        {
          "internalType": "string",
          "name": "_batchId",
          "type": "string"
        },
        {
          "internalType": "string",
          "name": "_cowId",
          "type": "string"
        },
        {
          "internalType": "uint256",
          "name": "_quantity",
          "type": "uint256"
        },
        {
          "internalType": "uint256",
          "name": "_fatContent",
          "type": "uint256"
        },
        {
          "internalType": "string",
          "name": "_quality",
          "type": "string"
        }
      ],
      "name": "recordMilkHarvest",
      "outputs": [],
      "stateMutability": "nonpayable",
      "type": "function"
    },
    {
      "inputs": [
        {
          "internalType": "string",
          "name": "_cowId",
          "type": "string"
        },
        {
          "internalType": "string",
          "name": "_breed",
          "type": "string"
        },
        {
          "internalType": "uint256",
          "name": "_birthDate",
          "type": "uint256"
        }
      ],
      "name": "registerCow",
      "outputs": [],
      "stateMutability": "nonpayable",
      "type": "function"
    },
    {
      "inputs": [
        {
          "internalType": "string",
          "name": "_batchId",
          "type": "string"
        }
      ],
      "name": "sendToFactory",
      "outputs": [],
      "stateMutability": "nonpayable",
      "type": "function"
    }
  ],
  "bytecode": "0x608060405234801561001057600080fd5b5033600360006101000a81548173ffffffffffffffffffffffffffffffffffffffff021916908373ffffffffffffffffffffffffffffffffffffffff16021790555061213b806100616000396000f3fe608060405234801561001057600080fd5b506004361061009e5760003560e01c8063bce0694711610066578063bce069471461018c578063c073494f146101aa578063cf189de1146101c6578063f630be47146101f6578063fc99e5e7146102125761009e565b806325c45246146100a3578063290b17ec146100d75780635794e7b0146101075780638da5cb5b1461013e5780638e3cbc211461015c575b600080fd5b6100bd60048036038101906100b891906113e7565b61022e565b6040516100ce9594939291906114e3565b60405180910390f35b6100f160048036038101906100ec9190611577565b61041f565b6040516100fe91906115a4565b60405180910390f35b610121600480360381019061011c91906113e7565b6104cb565b604051610135989796959493929190611607565b60405180910390f35b6101466106ee565b604051610153919061169a565b60405180910390f35b610176600480360381019061017191906113e7565b610714565b60405161018391906117ea565b60405180910390f35b610194610992565b6040516101a191906118ce565b60405180910390f35b6101c460048036038101906101bf91906118f0565b610a6b565b005b6101e060048036038101906101db91906113e7565b610cfd565b6040516101ed9190611a43565b60405180910390f35b610210600480360381019061020b9190611a65565b610f10565b005b61022c600480360381019061022791906113e7565b6110ab565b005b60008180516020810182018051848252602083016020850120818352809550505050505060009150905080600001805461026790611b1f565b80601f016020809104026020016040519081016040528092919081815260200182805461029390611b1f565b80156102e05780601f106102b5576101008083540402835291602001916102e0565b820191906000526020600020905b8154815290600101906020018083116102c357829003601f168201915b5050505050908060010180546102f590611b1f565b80601f016020809104026020016040519081016040528092919081815260200182805461032190611b1f565b801561036e5780601f106103435761010080835404028352916020019161036e565b820191906000526020600020905b81548152906001019060200180831161035157829003601f168201915b50505050509080600201549080600301805461038990611b1f565b80601f01602080910402602001604051908101604052809291908181526020018280546103b590611b1f565b80156104025780601f106103d757610100808354040283529160200191610402565b820191906000526020600020905b8154815290600101906020018083116103e557829003601f168201915b5050505050908060040160009054906101000a900460ff16905085565b6002818154811061042f57600080fd5b90600052602060002001600091509050805461044a90611b1f565b80601f016020809104026020016040519081016040528092919081815260200182805461047690611b1f565b80156104c35780601f10610498576101008083540402835291602001916104c3565b820191906000526020600020905b8154815290600101906020018083116104a657829003601f168201915b505050505081565b60018180516020810182018051848252602083016020850120818352809550505050505060009150905080600001805461050490611b1f565b80601f016020809104026020016040519081016040528092919081815260200182805461053090611b1f565b801561057d5780601f106105525761010080835404028352916020019161057d565b820191906000526020600020905b81548152906001019060200180831161056057829003601f168201915b50505050509080600101805461059290611b1f565b80601f01602080910402602001604051908101604052809291908181526020018280546105be90611b1f565b801561060b5780601f106105e05761010080835404028352916020019161060b565b820191906000526020600020905b8154815290600101906020018083116105ee57829003601f168201915b50505050509080600201549080600301549080600401549080600501805461063290611b1f565b80601f016020809104026020016040519081016040528092919081815260200182805461065e90611b1f565b80156106ab5780601f10610680576101008083540402835291602001916106ab565b820191906000526020600020905b81548152906001019060200180831161068e57829003601f168201915b5050505050908060060160009054906101000a900460ff16908060060160019054906101000a900473ffffffffffffffffffffffffffffffffffffffff16905088565b600360009054906101000a900473ffffffffffffffffffffffffffffffffffffffff1681565b61071c6111ff565b60018260405161072c9190611b8c565b90815260200160405180910390206040518061010001604052908160008201805461075690611b1f565b80601f016020809104026020016040519081016040528092919081815260200182805461078290611b1f565b80156107cf5780601f106107a4576101008083540402835291602001916107cf565b820191906000526020600020905b8154815290600101906020018083116107b257829003601f168201915b505050505081526020016001820180546107e890611b1f565b80601f016020809104026020016040519081016040528092919081815260200182805461081490611b1f565b80156108615780601f1061083657610100808354040283529160200191610861565b820191906000526020600020905b81548152906001019060200180831161084457829003601f168201915b5050505050815260200160028201548152602001600382015481526020016004820154815260200160058201805461089890611b1f565b80601f01602080910402602001604051908101604052809291908181526020018280546108c490611b1f565b80156109115780601f106108e657610100808354040283529160200191610911565b820191906000526020600020905b8154815290600101906020018083116108f457829003601f168201915b505050505081526020016006820160009054906101000a900460ff161515151581526020016006820160019054906101000a900473ffffffffffffffffffffffffffffffffffffffff1673ffffffffffffffffffffffffffffffffffffffff1673ffffffffffffffffffffffffffffffffffffffff16815250509050919050565b60606002805480602002602001604051908101604052809291908181526020016000905b82821015610a625783829060005260206000200180546109d590611b1f565b80601f0160208091040260200160405190810160405280929190818152602001828054610a0190611b1f565b8015610a4e5780601f10610a2357610100808354040283529160200191610a4e565b820191906000526020600020905b815481529060010190602001808311610a3157829003601f168201915b5050505050815260200190600101906109b6565b50505050905090565b600084604051610a7b9190611b8c565b908152602001604051809103902060040160009054906101000a900460ff16610ad9576040517f08c379a0000000000000000000000000000000000000000000000000000000008152600401610ad090611bef565b60405180910390fd5b6000600186604051610aeb9190611b8c565b90815260200160405180910390206000018054610b0790611b1f565b905014610b49576040517f08c379a0000000000000000000000000000000000000000000000000000000008152600401610b4090611c5b565b60405180910390fd5b6040518061010001604052808681526020018581526020014281526020018481526020018381526020018281526020016000151581526020013373ffffffffffffffffffffffffffffffffffffffff16815250600186604051610bac9190611b8c565b90815260200160405180910390206000820151816000019081610bcf9190611e27565b506020820151816001019081610be59190611e27565b5060408201518160020155606082015181600301556080820151816004015560a0820151816005019081610c199190611e27565b5060c08201518160060160006101000a81548160ff02191690831515021790555060e08201518160060160016101000a81548173ffffffffffffffffffffffffffffffffffffffff021916908373ffffffffffffffffffffffffffffffffffffffff160217905550905050600285908060018154018082558091505060019003906000526020600020016000909190919091509081610cb89190611e27565b507fa7945680952d450e50d8a4e62b5d5997820b4fc87c0b26cdb2e49ba82dc3e74685858542604051610cee9493929190611ef9565b60405180910390a15050505050565b610d0561125c565b600082604051610d159190611b8c565b90815260200160405180910390206040518060a0016040529081600082018054610d3e90611b1f565b80601f0160208091040260200160405190810160405280929190818152602001828054610d6a90611b1f565b8015610db75780601f10610d8c57610100808354040283529160200191610db7565b820191906000526020600020905b815481529060010190602001808311610d9a57829003601f168201915b50505050508152602001600182018054610dd090611b1f565b80601f0160208091040260200160405190810160405280929190818152602001828054610dfc90611b1f565b8015610e495780601f10610e1e57610100808354040283529160200191610e49565b820191906000526020600020905b815481529060010190602001808311610e2c57829003601f168201915b5050505050815260200160028201548152602001600382018054610e6c90611b1f565b80601f0160208091040260200160405190810160405280929190818152602001828054610e9890611b1f565b8015610ee55780601f10610eba57610100808354040283529160200191610ee5565b820191906000526020600020905b815481529060010190602001808311610ec857829003601f168201915b505050505081526020016004820160009054906101000a900460ff1615151515815250509050919050565b60008084604051610f219190611b8c565b90815260200160405180910390206000018054610f3d90611b1f565b905014610f7f576040517f08c379a0000000000000000000000000000000000000000000000000000000008152600401610f7690611f98565b60405180910390fd5b6040518060a001604052808481526020018381526020018281526020016040518060400160405280600781526020017f6865616c74687900000000000000000000000000000000000000000000000000815250815260200160011515815250600084604051610fee9190611b8c565b908152602001604051809103902060008201518160000190816110119190611e27565b5060208201518160010190816110279190611e27565b506040820151816002015560608201518160030190816110479190611e27565b5060808201518160040160006101000a81548160ff0219169083151502179055509050507fa55902251af8439a3909afcb9c7b1280dfa059072607a693df4d0abae347049983834260405161109e93929190611fb8565b60405180910390a1505050565b60006001826040516110bd9190611b8c565b908152602001604051809103902060000180546110d990611b1f565b90501161111b576040517f08c379a000000000000000000000000000000000000000000000000000000000815260040161111290612049565b60405180910390fd5b60018160405161112b9190611b8c565b908152602001604051809103902060060160009054906101000a900460ff161561118a576040517f08c379a0000000000000000000000000000000000000000000000000000000008152600401611181906120b5565b60405180910390fd5b6001808260405161119b9190611b8c565b908152602001604051809103902060060160006101000a81548160ff0219169083151502179055507f32c675f842b49ff9d03053b40bb40e8985ee60a934ba526d3be198813771b74a81426040516111f49291906120d5565b60405180910390a150565b604051806101000160405280606081526020016060815260200160008152602001600081526020016000815260200160608152602001600015158152602001600073ffffffffffffffffffffffffffffffffffffffff1681525090565b6040518060a00160405280606081526020016060815260200160008152602001606081526020016000151581525090565b6000604051905090565b600080fd5b600080fd5b600080fd5b600080fd5b6000601f19601f8301169050919050565b7f4e487b7100000000000000000000000000000000000000000000000000000000600052604160045260246000fd5b6112f4826112ab565b810181811067ffffffffffffffff82111715611313576113126112bc565b5b80604052505050565b600061132661128d565b905061133282826112eb565b919050565b600067ffffffffffffffff821115611352576113516112bc565b5b61135b826112ab565b9050602081019050919050565b82818337600083830152505050565b600061138a61138584611337565b61131c565b9050828152602081018484840111156113a6576113a56112a6565b5b6113b1848285611368565b509392505050565b600082601f8301126113ce576113cd6112a1565b5b81356113de848260208601611377565b91505092915050565b6000602082840312156113fd576113fc611297565b5b600082013567ffffffffffffffff81111561141b5761141a61129c565b5b611427848285016113b9565b91505092915050565b600081519050919050565b600082825260208201905092915050565b60005b8381101561146a57808201518184015260208101905061144f565b60008484015250505050565b600061148182611430565b61148b818561143b565b935061149b81856020860161144c565b6114a4816112ab565b840191505092915050565b6000819050919050565b6114c2816114af565b82525050565b60008115159050919050565b6114dd816114c8565b82525050565b600060a08201905081810360008301526114fd8188611476565b905081810360208301526115118187611476565b905061152060408301866114b9565b81810360608301526115328185611476565b905061154160808301846114d4565b9695505050505050565b611554816114af565b811461155f57600080fd5b50565b6000813590506115718161154b565b92915050565b60006020828403121561158d5761158c611297565b5b600061159b84828501611562565b91505092915050565b600060208201905081810360008301526115be8184611476565b905092915050565b600073ffffffffffffffffffffffffffffffffffffffff82169050919050565b60006115f1826115c6565b9050919050565b611601816115e6565b82525050565b6000610100820190508181036000830152611622818b611476565b90508181036020830152611636818a611476565b905061164560408301896114b9565b61165260608301886114b9565b61165f60808301876114b9565b81810360a08301526116718186611476565b905061168060c08301856114d4565b61168d60e08301846115f8565b9998505050505050505050565b60006020820190506116af60008301846115f8565b92915050565b600082825260208201905092915050565b60006116d182611430565b6116db81856116b5565b93506116eb81856020860161144c565b6116f4816112ab565b840191505092915050565b611708816114af565b82525050565b611717816114c8565b82525050565b611726816115e6565b82525050565b600061010083016000830151848203600086015261174a82826116c6565b9150506020830151848203602086015261176482826116c6565b915050604083015161177960408601826116ff565b50606083015161178c60608601826116ff565b50608083015161179f60808601826116ff565b5060a083015184820360a08601526117b782826116c6565b91505060c08301516117cc60c086018261170e565b5060e08301516117df60e086018261171d565b508091505092915050565b60006020820190508181036000830152611804818461172c565b905092915050565b600081519050919050565b600082825260208201905092915050565b6000819050602082019050919050565b600061184483836116c6565b905092915050565b6000602082019050919050565b60006118648261180c565b61186e8185611817565b93508360208202850161188085611828565b8060005b858110156118bc578484038952815161189d8582611838565b94506118a88361184c565b925060208a01995050600181019050611884565b50829750879550505050505092915050565b600060208201905081810360008301526118e88184611859565b905092915050565b600080600080600060a0868803121561190c5761190b611297565b5b600086013567ffffffffffffffff81111561192a5761192961129c565b5b611936888289016113b9565b955050602086013567ffffffffffffffff8111156119575761195661129c565b5b611963888289016113b9565b945050604061197488828901611562565b935050606061198588828901611562565b925050608086013567ffffffffffffffff8111156119a6576119a561129c565b5b6119b2888289016113b9565b9150509295509295909350565b600060a08301600083015184820360008601526119dc82826116c6565b915050602083015184820360208601526119f682826116c6565b9150506040830151611a0b60408601826116ff565b5060608301518482036060860152611a2382826116c6565b9150506080830151611a38608086018261170e565b508091505092915050565b60006020820190508181036000830152611a5d81846119bf565b905092915050565b600080600060608486031215611a7e57611a7d611297565b5b600084013567ffffffffffffffff811115611a9c57611a9b61129c565b5b611aa8868287016113b9565b935050602084013567ffffffffffffffff811115611ac957611ac861129c565b5b611ad5868287016113b9565b9250506040611ae686828701611562565b9150509250925092565b7f4e487b7100000000000000000000000000000000000000000000000000000000600052602260045260246000fd5b60006002820490506001821680611b3757607f821691505b602082108103611b4a57611b49611af0565b5b50919050565b600081905092915050565b6000611b6682611430565b611b708185611b50565b9350611b8081856020860161144c565b80840191505092915050565b6000611b988284611b5b565b915081905092915050565b7f426f206b686f6e6720686f70206c650000000000000000000000000000000000600082015250565b6000611bd9600f8361143b565b9150611be482611ba3565b602082019050919050565b60006020820190508181036000830152611c0881611bcc565b9050919050565b7f426174636820646120746f6e2074616900000000000000000000000000000000600082015250565b6000611c4560108361143b565b9150611c5082611c0f565b602082019050919050565b60006020820190508181036000830152611c7481611c38565b9050919050565b60008190508160005260206000209050919050565b60006020601f8301049050919050565b600082821b905092915050565b600060088302611cdd7fffffffffffffffffffffffffffffffffffffffffffffffffffffffffffffffff82611ca0565b611ce78683611ca0565b95508019841693508086168417925050509392505050565b6000819050919050565b6000611d24611d1f611d1a846114af565b611cff565b6114af565b9050919050565b6000819050919050565b611d3e83611d09565b611d52611d4a82611d2b565b848454611cad565b825550505050565b600090565b611d67611d5a565b611d72818484611d35565b505050565b5b81811015611d9657611d8b600082611d5f565b600181019050611d78565b5050565b601f821115611ddb57611dac81611c7b565b611db584611c90565b81016020851015611dc4578190505b611dd8611dd085611c90565b830182611d77565b50505b505050565b600082821c905092915050565b6000611dfe60001984600802611de0565b1980831691505092915050565b6000611e178383611ded565b9150826002028217905092915050565b611e3082611430565b67ffffffffffffffff811115611e4957611e486112bc565b5b611e538254611b1f565b611e5e828285611d9a565b600060209050601f831160018114611e915760008415611e7f578287015190505b611e898582611e0b565b865550611ef1565b601f198416611e9f86611c7b565b60005b82811015611ec757848901518255600182019150602085019450602081019050611ea2565b86831015611ee45784890151611ee0601f891682611ded565b8355505b6001600288020188555050505b505050505050565b60006080820190508181036000830152611f138187611476565b90508181036020830152611f278186611476565b9050611f3660408301856114b9565b611f4360608301846114b9565b95945050505050565b7f426f20646120746f6e2074616900000000000000000000000000000000000000600082015250565b6000611f82600d8361143b565b9150611f8d82611f4c565b602082019050919050565b60006020820190508181036000830152611fb181611f75565b9050919050565b60006060820190508181036000830152611fd28186611476565b90508181036020830152611fe68185611476565b9050611ff560408301846114b9565b949350505050565b7f4261746368206b686f6e6720746f6e2074616900000000000000000000000000600082015250565b600061203360138361143b565b915061203e82611ffd565b602082019050919050565b6000602082019050818103600083015261206281612026565b9050919050565b7f44612063687579656e20726f6900000000000000000000000000000000000000600082015250565b600061209f600d8361143b565b91506120aa82612069565b602082019050919050565b600060208201905081810360008301526120ce81612092565b9050919050565b600060408201905081810360008301526120ef8185611476565b90506120fe60208301846114b9565b939250505056fea2646970667358221220e9a662692e22545c8e4ea1d9ab35ab16aca866361727ee04ee2ea54f87e51ad664736f6c63430008130033",
  "linkReferences": {},
  "deployedLinkReferences": {}
}